{
  "contractName": "Faucet",
  "abi": [
    {
      "inputs": [],
      "stateMutability": "nonpayable",
      "type": "constructor"
    },
    {
      "inputs": [
        {
          "internalType": "address",
          "name": "",
          "type": "address"
        }
      ],
      "name": "funders",
      "outputs": [
        {
          "internalType": "bool",
          "name": "",
          "type": "bool"
        }
      ],
      "stateMutability": "view",
      "type": "function"
    },
    {
      "inputs": [
        {
          "internalType": "uint256",
          "name": "",
          "type": "uint256"
        }
      ],
      "name": "lutFunders",
      "outputs": [
        {
          "internalType": "address",
          "name": "",
          "type": "address"
        }
      ],
      "stateMutability": "view",
      "type": "function"
    },
    {
      "inputs": [],
      "name": "numOfFunders",
      "outputs": [
        {
          "internalType": "uint256",
          "name": "",
          "type": "uint256"
        }
      ],
      "stateMutability": "view",
      "type": "function"
    },
    {
      "inputs": [],
      "name": "owner",
      "outputs": [
        {
          "internalType": "address",
          "name": "",
          "type": "address"
        }
      ],
      "stateMutability": "view",
      "type": "function"
    },
    {
      "stateMutability": "payable",
      "type": "receive"
    },
    {
      "inputs": [],
      "name": "addFunds",
      "outputs": [],
      "stateMutability": "payable",
      "type": "function"
    },
    {
      "inputs": [
        {
          "internalType": "uint256",
          "name": "withdrawAmount",
          "type": "uint256"
        }
      ],
      "name": "withdraw",
      "outputs": [],
      "stateMutability": "nonpayable",
      "type": "function"
    },
    {
      "inputs": [],
      "name": "getAllFunders",
      "outputs": [
        {
          "internalType": "address[]",
          "name": "",
          "type": "address[]"
        }
      ],
      "stateMutability": "view",
      "type": "function"
    },
    {
      "inputs": [
        {
          "internalType": "uint8",
          "name": "index",
          "type": "uint8"
        }
      ],
      "name": "getFunderAtIndex",
      "outputs": [
        {
          "internalType": "address",
          "name": "",
          "type": "address"
        }
      ],
      "stateMutability": "view",
      "type": "function"
    }
  ],
  "bytecode": "0x608060405234801561001057600080fd5b5033600160006101000a81548173ffffffffffffffffffffffffffffffffffffffff021916908373ffffffffffffffffffffffffffffffffffffffff1602179055506109d6806100616000396000f3fe60806040526004361061007f5760003560e01c80636fbbb55d1161004e5780636fbbb55d1461016b5780638da5cb5b14610196578063a26759cb146101c1578063af7f2c9b146101cb57610086565b8063031b36771461008b5780630a93cf33146100c85780631f8947ea146101055780632e1a7d4d1461014257610086565b3661008657005b600080fd5b34801561009757600080fd5b506100b260048036038101906100ad91906105c7565b6101f6565b6040516100bf919061060f565b60405180910390f35b3480156100d457600080fd5b506100ef60048036038101906100ea9190610663565b610216565b6040516100fc919061069f565b60405180910390f35b34801561011157600080fd5b5061012c600480360381019061012791906106f0565b610256565b604051610139919061069f565b60405180910390f35b34801561014e57600080fd5b50610169600480360381019061016491906106f0565b610289565b005b34801561017757600080fd5b50610180610320565b60405161018d91906107db565b60405180910390f35b3480156101a257600080fd5b506101ab610419565b6040516101b8919061069f565b60405180910390f35b6101c961043f565b005b3480156101d757600080fd5b506101e061055e565b6040516101ed919061080c565b60405180910390f35b60026020528060005260406000206000915054906101000a900460ff1681565b6000600360008360ff16815260200190815260200160002060009054906101000a900473ffffffffffffffffffffffffffffffffffffffff169050919050565b60036020528060005260406000206000915054906101000a900473ffffffffffffffffffffffffffffffffffffffff1681565b8067016345785d8a00008111156102d5576040517f08c379a00000000000000000000000000000000000000000000000000000000081526004016102cc906108aa565b60405180910390fd5b3373ffffffffffffffffffffffffffffffffffffffff166108fc839081150290604051600060405180830381858888f1935050505015801561031b573d6000803e3d6000fd5b505050565b60606000805467ffffffffffffffff81111561033f5761033e6108ca565b5b60405190808252806020026020018201604052801561036d5781602001602082028036833780820191505090505b50905060005b600054811015610411576003600082815260200190815260200160002060009054906101000a900473ffffffffffffffffffffffffffffffffffffffff168282815181106103c4576103c36108f9565b5b602002602001019073ffffffffffffffffffffffffffffffffffffffff16908173ffffffffffffffffffffffffffffffffffffffff1681525050808061040990610957565b915050610373565b508091505090565b600160009054906101000a900473ffffffffffffffffffffffffffffffffffffffff1681565b6000339050600260008273ffffffffffffffffffffffffffffffffffffffff1673ffffffffffffffffffffffffffffffffffffffff16815260200190815260200160002060009054906101000a900460ff1661055b5760008060008154809291906104a990610957565b9190505590506001600260008473ffffffffffffffffffffffffffffffffffffffff1673ffffffffffffffffffffffffffffffffffffffff16815260200190815260200160002060006101000a81548160ff021916908315150217905550816003600083815260200190815260200160002060006101000a81548173ffffffffffffffffffffffffffffffffffffffff021916908373ffffffffffffffffffffffffffffffffffffffff160217905550505b50565b60005481565b600080fd5b600073ffffffffffffffffffffffffffffffffffffffff82169050919050565b600061059482610569565b9050919050565b6105a481610589565b81146105af57600080fd5b50565b6000813590506105c18161059b565b92915050565b6000602082840312156105dd576105dc610564565b5b60006105eb848285016105b2565b91505092915050565b60008115159050919050565b610609816105f4565b82525050565b60006020820190506106246000830184610600565b92915050565b600060ff82169050919050565b6106408161062a565b811461064b57600080fd5b50565b60008135905061065d81610637565b92915050565b60006020828403121561067957610678610564565b5b60006106878482850161064e565b91505092915050565b61069981610589565b82525050565b60006020820190506106b46000830184610690565b92915050565b6000819050919050565b6106cd816106ba565b81146106d857600080fd5b50565b6000813590506106ea816106c4565b92915050565b60006020828403121561070657610705610564565b5b6000610714848285016106db565b91505092915050565b600081519050919050565b600082825260208201905092915050565b6000819050602082019050919050565b61075281610589565b82525050565b60006107648383610749565b60208301905092915050565b6000602082019050919050565b60006107888261071d565b6107928185610728565b935061079d83610739565b8060005b838110156107ce5781516107b58882610758565b97506107c083610770565b9250506001810190506107a1565b5085935050505092915050565b600060208201905081810360008301526107f5818461077d565b905092915050565b610806816106ba565b82525050565b600060208201905061082160008301846107fd565b92915050565b600082825260208201905092915050565b7f596f752063616e2774207769746864726177206d6f7265207468616e20302e3160008201527f2065746865720000000000000000000000000000000000000000000000000000602082015250565b6000610894602683610827565b915061089f82610838565b604082019050919050565b600060208201905081810360008301526108c381610887565b9050919050565b7f4e487b7100000000000000000000000000000000000000000000000000000000600052604160045260246000fd5b7f4e487b7100000000000000000000000000000000000000000000000000000000600052603260045260246000fd5b7f4e487b7100000000000000000000000000000000000000000000000000000000600052601160045260246000fd5b6000610962826106ba565b91507fffffffffffffffffffffffffffffffffffffffffffffffffffffffffffffffff82141561099557610994610928565b5b60018201905091905056fea26469706673582212207b2572d9f3ff9a26fb339c6cfb7b04eb9f77bb1121889e1686f86f2e8eabe3d464736f6c634300080a0033",
  "immutableReferences": {},
  "source": "// SPDX-License-Identifier: MIT\r\npragma solidity >=0.4.22 <0.9.0;\r\nimport \"./IFaucet.sol\";\r\n\r\ncontract Faucet is IFaucet {\r\n    uint256 public numOfFunders;\r\n    address public owner;\r\n    mapping(address => bool) public funders;\r\n    mapping(uint256 => address) public lutFunders;\r\n\r\n    constructor() {\r\n        owner = msg.sender;\r\n    }\r\n\r\n    modifier onlyOwner() {\r\n        require(msg.sender == owner, \"only owner can call this function\");\r\n        _;\r\n    }\r\n    modifier limitWithdraw(uint256 withdrawAmount) {\r\n        require(\r\n            withdrawAmount <= 100000000000000000,\r\n            \"You can't withdraw more than 0.1 ether\"\r\n        );\r\n        _;\r\n    }\r\n\r\n    receive() external payable {}\r\n\r\n    function addFunds() external payable override {\r\n        address funder = msg.sender;\r\n        if (!funders[funder]) {\r\n            uint256 index = numOfFunders++;\r\n            funders[funder] = true;\r\n            lutFunders[index] = funder;\r\n        }\r\n    }\r\n\r\n    function withdraw(uint256 withdrawAmount)\r\n        external\r\n        override\r\n        limitWithdraw(withdrawAmount)\r\n    {\r\n        payable(msg.sender).transfer(withdrawAmount);\r\n    }\r\n\r\n    function getAllFunders() external view returns (address[] memory) {\r\n        address[] memory _funders = new address[](numOfFunders);\r\n        for (uint256 i = 0; i < numOfFunders; i++) {\r\n            _funders[i] = lutFunders[i];\r\n        }\r\n        return _funders;\r\n    }\r\n\r\n    function getFunderAtIndex(uint8 index) external view returns (address) {\r\n        return lutFunders[index];\r\n    }\r\n}\r\n\r\n// const instance = await Faucet.deployed()\r\n// instance.addFunds({from:accounts[0],value:\"2000000000000000000\"})\r\n// instance.addFunds({from:accounts[1],value:\"2000000000000000000\"})\r\n// instance.addFunds({from:accounts[2],value:\"2000000000000000000\"})\r\n// instance.getAllFunders()\r\n// instance.withdraw(\"5000000000000\",{from:accounts[0]})\r\n",
  "sourcePath": "D:\\Web3-Projects\\blockchain\\faucet\\contracts\\FaucetContract.sol",
  "compiler": {
    "name": "solc",
    "version": "0.8.10+commit.fc410830.Emscripten.clang"
  },
  "schemaVersion": "3.4.3",
  "updatedAt": "2022-01-24T15:30:26.384Z",
  "devdoc": {
    "kind": "dev",
    "methods": {},
    "version": 1
  },
  "userdoc": {
    "kind": "user",
    "methods": {},
    "version": 1
  }
}